:100000000C947B000C94A3000C94A3000C94A3000C
:100010000C94A3000C94A3000C94A3000C94A300D4
:100020000C94A3000C94A3000C94A3000C94A300C4
:100030000C94A3000C94A3000C94A3000C94A300B4
:100040000C94BD040C94A3000C943F040C9419046C
:100050000C94A3000C94A3000C94A3000C94A30094
:100060000C94A3000C94A3004E414E494E495459A0
:10007000494E46CDCCCC3D0AD7233C17B7D1387773
:10008000CC2B329595E6241FB14F0A000020410089
:1000900000C84200401C4620BCBE4CCA1B0E5AAED3
:1000A000C59D740000000800020100000304070061
:1000B0000000000000000000000000250028002BC8
:1000C0000000000000240027002A000404040404A7
:1000D00004040402020202020203030303030301F5
:1000E00002040810204080010204081020010204CC
:1000F00008102000160A11241FBECFEFD8E0DEBF83
:10010000CDBF11E0A0E0B1E0E0E8F6E202C005906A
:100110000D92AA37B107D9F722E0AAE7B1E001C0F2
:100120001D92AC37B207E1F710E0CBE7D0E004C096
:100130002197FE010E948B0ECA37D107C9F70E9492
:100140007C070C943E130C940000CF92DF92EF9248
:10015000FF920F931F93CF93DF936C017A018B0172
:10016000C0E0D0E0CE15DF0589F0D8016D918D019A
:10017000D601ED91FC910190F081E02DC601099529
:10018000892B11F47E0102C02196ECCFC701DF91CB
:10019000CF911F910F91FF90EF90DF90CF90089536
:1001A000FC01918D828D981761F0828DDF01A80F7F
:1001B000B11D5D968C91928D9F5F9F73928F90E0A1
:1001C00008958FEF9FEF0895FC01918D828D981710
:1001D00031F0828DE80FF11D858D90E008958FEF4D
:1001E0009FEF0895FC01918D228D892F90E0805C16
:1001F0009F4F821B91098F739927089588EC91E096
:100200000E94F20021E0892B09F420E0822F08955A
:10021000FC01848DDF01A80FB11DA35ABF4F2C91A3
:10022000848D90E001968F739927848FA689B78972
:100230002C93A089B1898C9180648C93938D848D4B
:10024000981306C00288F389E02D80818F7D80831A
:100250000895EF92FF920F931F93CF93DF93EC01DA
:1002600081E0888F9B8D8C8D981305C0E889F98972
:10027000808185FD24C0F62E0B8D10E00F5F1F4F8F
:100280000F731127E02E8C8DE8120CC00FB607FCFF
:10029000FACFE889F989808185FFF5CFCE010E94E8
:1002A0000801F1CF8B8DFE01E80FF11DE35AFF4FDE
:1002B000F0820B8FEA89FB898081806207C0EE891A
:1002C000FF896083E889F98980818064808381E087
:1002D00090E0DF91CF911F910F91FF90EF900895E3
:1002E000CF93DF93EC01888D8823C9F0EA89FB89DD
:1002F000808185FD05C0A889B9898C9186FD0FC0D4
:100300000FB607FCF5CF808185FFF2CFA889B989A8
:100310008C9185FFEDCFCE010E940801E7CFDF91E0
:10032000CF9108953FB7F89480917B0190917C0123
:10033000A0917D01B0917E0126B5A89B05C02F3FFD
:1003400019F00196A11DB11D3FBFBA2FA92F982FFB
:100350008827820F911DA11DB11DBC01CD0142E076
:10036000660F771F881F991F4A95D1F708958F92BE
:100370009F92AF92BF92CF92DF92EF92FF926B016A
:100380007C010E9492014B015C01C114D104E10483
:10039000F104F1F00E949201DC01CB018819990966
:1003A000AA09BB09883E9340A105B10570F321E07D
:1003B000C21AD108E108F10888EE880E83E0981E81
:1003C000A11CB11CC114D104E104F10419F7DDCF63
:1003D000FF90EF90DF90CF90BF90AF909F908F9065
:1003E00008950F931F93CF93DF9300D000D0CDB724
:1003F000DEB7182F10926502109266021092670203
:10040000109268021092690244E0BE016F5F7F4F54
:100410000E9441078A819981482F50E065E05595F7
:1004200047956A95E1F728E0929F400D511D1124F0
:10043000052E000C660B770B409366025093670203
:10044000609368027093690283FF29C092E0440FB1
:10045000551F661F771F9A95D1F78370480F511D5E
:10046000611D711D762F652F542F44278B81480FF6
:10047000511D611D711D762F652F542F44278C81CE
:10048000480F511D611D711D409366025093670214
:10049000609368027093690281E0809365028FEF38
:1004A000810F0E947B06082F84E0810F0E947B064B
:1004B000482F03FF04C081E08093730202C01092B2
:1004C00073024F7040936A026BE672E085E0810F21
:1004D0000E9441070F900F900F900F90DF91CF91E6
:1004E0001F910F91089588E191E00E94790680E0C4
:1004F00090E00E944B068AE191E00E9479068FE02D
:1005000097E20E944B068AE191E00E94790681E021
:1005100090E00E944B068AE191E00E94790681E01A
:1005200090E00E944B068CE191E00E94F10588EC7E
:1005300091E00C9470010E9488102F923F924F928C
:100540005F926F927F928F929F92AF92BF92CF9263
:10055000DF92EF92FF920F931F93CF93DF93CDB76C
:10056000DEB72D970FB6F894DEBF0FBECDBF08E8FB
:1005700011E0FEE1CF2EF1E0DF2ECE0101965C010D
:100580007E0199E0E90EF11CA3E09A2E9E0C88EC06
:1005900091E00E94F200892B09F405C188EC91E0FA
:1005A0000E94D0008A3031F480918801882309F4B8
:1005B000F3C01BC0282F082E000C330B3F938F93E2
:1005C0001F930F93DF92CF921F930F930E949D1062
:1005D000F80101900020E9F70FB6F894DEBF0FBED6
:1005E000CDBFE85CF14099F6DFCF88E0F5011192CC
:1005F0008A95E9F70E944E050E94520E69830E9477
:100600004E0520E030E048E455E40E946C0D0E9465
:10061000520E6A83611103C00E944E051CC06130F6
:1006200091F40E944E050E94520E6B830E944E056B
:1006300020E030E048EC52E40E94380C0E944B0E5F
:100640007C836D830BC00E944E0520E030E44EE4B5
:1006500055E40E946C0D0E94520E6B83109265024D
:10066000109266021092670210926802109269025C
:1006700088E080936A02F501ABE6B2E081918D9348
:10068000EE15FF05D9F7612C712C70E3372EE0E4ED
:100690002E2E20E539862A862B872701F2018190AC
:1006A0002F01882D2D870E947B06982F98702D850D
:1006B00083FD02C0839404C09410F0CF812C92E09B
:1006C000FFEF6F1A7F0A923029F482E368167104F3
:1006D00009F762C092E36916710409F45DC04091A4
:1006E0006A026BE672E085E0880D0E940707809140
:1006F0007302813029F480916A02806480936A02D7
:1007000060916A0284E0880D0E94E40640916602CE
:100710005091670260916802709169028091650250
:100720008130B1F44C875B87AB0166277727942F24
:100730009C71842F8370E8E09E9F800D1124886057
:100740008A8765E0569547956A95E1F749870DC018
:10075000CA0123E0969587952A95E1F78987429506
:10076000440F407E4A871C861B8644E0B701882DD3
:100770000E9407078A9448E068E0882D0E949E0640
:1007800082E3682E712C882D0E947B0683FF04C0B3
:10079000F1E06F1A7108B9F766E071E088E891E05E
:1007A0000E949610F4CE2D960FB6F894DEBF0FBEC1
:1007B000CDBFDF91CF911F910F91FF90EF90DF9010
:1007C000CF90BF90AF909F908F907F906F905F90F1
:1007D0004F903F902F9008950E94FE0081110C943D
:1007E0009D0208950F931F93CF93DF93EC018881AF
:1007F0009981009729F02A813B812617370788F4D1
:100800008B016F5F7F4F0E94BE0F009761F099834D
:1008100088831B830A832C813D81232B11F4FC01E7
:10082000108281E001C080E0DF91CF911F910F9194
:1008300008951F920F920FB60F9211242F933F939A
:100840004F935F936F937F938F939F93AF93BF93D8
:10085000EF93FF9388EC91E00E940801FF91EF91E4
:10086000BF91AF919F918F917F916F915F914F91C8
:100870003F912F910F900FBE0F901F9018951F92D0
:100880000F920FB60F9211242F938F939F93EF9394
:10089000FF93E091D801F091D9018081E091DE01D0
:1008A000F091DF0182FD12C090818091E1018F5FA4
:1008B0008F732091E201821751F0E091E101F0E0A5
:1008C000E853FE4F958F8093E10101C08081FF9135
:1008D000EF919F918F912F910F900FBE0F901F90CE
:1008E000189590E0FC01ED55FF4F3491FC01E15269
:1008F000FF4F2491FC01E553FF4FE491EE2309F4EF
:100900003BC0332339F1333091F038F43130A9F062
:10091000323001F584B58F7D12C0373091F0383018
:10092000A1F03430B9F4809180008F7D03C08091B4
:1009300080008F77809380000DC084B58F7784BD51
:1009400009C08091B0008F7703C08091B0008F7D87
:100950008093B000F0E0EE0FFF1FE954FF4FA59128
:10096000B4918FB7F894EC91611103C020952E23B8
:1009700001C02E2B2C938FBF08951F920F920FB69C
:100980000F9211242F933F938F939F93AF93BF9315
:100990008091800190918101A0918201B0918301A9
:1009A00030917A0123E0230F2D3720F40196A11D09
:1009B000B11D05C026E8230F0296A11DB11D20938D
:1009C0007A018093800190938101A0938201B0937A
:1009D000830180917B0190917C01A0917D01B09178
:1009E0007E010196A11DB11D80937B0190937C0136
:1009F000A0937D01B0937E01BF91AF919F918F91A4
:100A00003F912F910F900FBE0F901F901895089552
:100A10008EBD00000DB407FEFDCF8EB508958CBDD0
:100A20009DBD08951F93CF93DF9380E591E00E94D1
:100A30000F05C5E6D2E060E088890E94710480EA73
:100A40000E94080580E00E940805182F61E088894F
:100A50000E947104812FDF91CF911F91089590E042
:100A6000FC01E152FF4F2491FC01E553FF4F8491BB
:100A7000882399F090E0880F991FFC01EF53FF4FF6
:100A8000A591B491FC01E954FF4F859194918FB7E2
:100A9000F894EC91E22BEC938FBF0895CF92DF9204
:100AA000EF92FF921F93CF93DF93CDB7DEB72897D6
:100AB0000FB6F894DEBF0FBECDBF1A8219821C821A
:100AC0001B821E821D8260E070E0CE0101960E94B2
:100AD000F20329813A8181110DC02115310519F0E8
:100AE000C9010E94260F1A8219821E821D821C8251
:100AF0001B8207C01E821D8269E771E0C9010E9446
:100B0000961065E070E0CE0101960E94F20388E83D
:100B1000C82E81E0D82E10E0F60181916F018F324E
:100B2000F1F08F831886ED80FE80FFEFEF1AFF0A49
:100B3000B701CE0101960E94F203882369F0298152
:100B40003A818D819E81BE01695F7F4F820F931F25
:100B50000E949610FE82ED821F5F1630E9F6812F0B
:100B600090E087579E4F9F938F9388E891E09F93E3
:100B70008F930E949D1089819A810F900F900F9002
:100B80000F90009729F00E94500A6B017C0103C06E
:100B9000C12CD12C760189819A810E94260FC70130
:100BA000B60128960FB6F894DEBF0FBECDBFDF9119
:100BB000CF911F91FF90EF90DF90CF900895009715
:100BC00069F0FC0101900020E9F73197AF01481B63
:100BD000590BBC0188EC91E00C94A50080E090E0FA
:100BE0000895CF93DF930E94DF05EC0187E791E042
:100BF0000E94DF058C0F9D1FDF91CF9108958F928A
:100C00009F92AF92BF920F931F93CF93DF93CDB775
:100C1000DEB7A1970FB6F894DEBF0FBECDBF19A205
:100C2000423008F44AE08E010F5D1F4F842E912C54
:100C3000A12CB12CA50194010E943B0DE62FB90116
:100C4000CA0101501109EA3014F4E05D01C0E95C09
:100C5000D801EC93232B242B252B61F7C8010E948C
:100C6000DF05A1960FB6F894DEBF0FBECDBFDF91B2
:100C7000CF911F910F91BF90AF909F908F9008954B
:100C8000E091C801F091C9010190F081E02D682F39
:100C900088EC91E00994CF92DF92EF92FF92CF938C
:100CA000DF936C01990FEE08FF08F7FE17C08DE285
:100CB0000E944006EC0166277727CB016C197D095D
:100CC0008E099F094AE00E94FF058C0F9D1FDF914E
:100CD000CF91FF90EF90DF90CF9008954AE0C70149
:100CE000B601DF91CF91FF90EF90DF90CF900C9401
:100CF000FF050C94DF051F93CF93DF93182F80E53A
:100D000091E00E940F05C5E6D2E060E088890E946C
:100D1000710483E00E940805812F0E94080580E08D
:100D20000E940805182F61E088890E9471040E94C2
:100D30000705812FDF91CF911F910895EF92FF92C8
:100D40000F931F93CF93DF931F92CDB7DEB7082F7A
:100D5000162F80E591E049830E940F0585E6E82E75
:100D600082E0F82E60E0F70180890E94710485E03E
:100D70000E940805802F0E940805812F0E94080507
:100D80004981842F0E94080561E0F70180890E9453
:100D900071040F90DF91CF911F910F91FF90EF9011
:100DA0000C940705CF93C82F482F60EE8FE00E9468
:100DB0009E068FE00E947B06807E91E08C1301C02E
:100DC00090E0892FCF9108950F931F93CF93DF93D6
:100DD000082F162F80E591E00E940F05C5E6D2E0AE
:100DE00060E088890E94710482E00E940805802FDB
:100DF0000E940805812F0E94080561E088890E94F1
:100E00007104DF91CF911F910F910C940705CF9240
:100E1000DF92FF920F931F93CF93DF931F92CDB773
:100E2000DEB7F82E162F042F80E591E079830E941B
:100E30000F0560E0809175020E94710482E00E94BB
:100E400008058F2D0E940805F12EC12E7981D72E1D
:100E50008C2D8F19801730F4F60181916F010E945B
:100E60000805F6CF61E0809175020E9471040F9031
:100E7000DF91CF911F910F91FF90DF90CF900C9455
:100E80000705EF92FF920F931F93CF93DF931F926B
:100E9000CDB7DEB7182FF62EE42E80E591E07983EA
:100EA0000E940F0560E0809175020E94710483E04A
:100EB0000E940805812F0E9408050F2D7981172FA8
:100EC000F12CFE1459F0F8E0FF1641F080E00E948A
:100ED0000805F80181938F01F394F3CF61E08091CD
:100EE00075020E9471040F90DF91CF911F910F91B5
:100EF000FF90EF900C940705CF93DF93CDB7DEB74B
:100F000028970FB6F894DEBF0FBECDBF789484B596
:100F1000826084BD84B5816084BD85B5826085BDF5
:100F200085B5816085BD80916E00816080936E0083
:100F30001092810080918100826080938100809175
:100F40008100816080938100809180008160809326
:100F500080008091B10084608093B1008091B000E6
:100F600081608093B00080917A00846080937A00E1
:100F700080917A00826080937A0080917A0081600B
:100F800080937A0080917A00806880937A00109232
:100F9000C100E091D801F091D90182E08083E09115
:100FA000D401F091D5011082E091D601F091D701E2
:100FB00080E180831092E001E091DC01F091DD019D
:100FC00086E08083E091DA01F091DB01808180612D
:100FD0008083E091DA01F091DB0180818860808379
:100FE000E091DA01F091DB01808180688083E091FB
:100FF000DA01F091DB0180818F7D8083109288017E
:101000001FB7F89480917F01811124C0E5EDF0E0D5
:101010008491E9EEF0E09491E82FF0E0EE0FFF1FED
:10102000EF53FF4FA591B491EC91E92321F461E0D6
:101030008AE00E9471048AE00E942F058CB58061CD
:101040008CBD8CB580648CBD8DE00E942F058BE03B
:101050000E942F0580917F018F5F80937F011FBFCA
:1010600080E591E00E940F0560E0809175020E948A
:10107000710480EC0E94080561E0809175020E9475
:1010800071046AE070E080E090E00E94B70180E8BF
:101090000E94D206882319F16AE070E080E090E0B7
:1010A0000E94B70183E291E00E94F1058CE391E098
:1010B0000E94F1056AEF70E080E090E00E94B701C5
:1010C00087E591E00E94F10598E088E10FB6F89479
:1010D000A895809360000FBE9093600051C06AE0B5
:1010E00070E080E090E00E94B70163E08AE20E9435
:1010F000E4066AEF89E20E94E40667E888E20E945B
:10110000E4066AE070E080E090E00E94B70110E33E
:1011100060E0812F0E94E40660E080E1810F0E9480
:10112000E40660E080E2810F0E94E4061F5F1E3348
:1011300079F760E080E60E94E40660E080E70E94C4
:10114000E40663E08BE20E94E40644E064E680E6A5
:101150000E949E0640E060E680E70E949E0680E0D6
:101160000E94D206811198CF6AE070E080E090E0A2
:101170000E94B7010E9473028E010F5F1F4F8CC047
:10118000FFCF81FD97C088E191E00E9479066091D0
:1011900066027091670280916802909169024AE04C
:1011A0000E94FF058AE191E00E947906F98023E61A
:1011B000F21298C086E691E00E9479068AE191E0F9
:1011C0000E9479066A8182E0F8121EC1862F90E0A3
:1011D0008C51934F0E944B068AE191E00E94790660
:1011E0006B8170E0762F66278C81682B072E000CB0
:1011F000880B990B0E94D90B20E030E048EC52E4B8
:101200000E94D90D6B017C014B015C019B01AC017B
:101210000E94860E882309F46CC08BE691E00E9440
:10122000DF058CE191E00E94F10588EC91E00E94DD
:1012300070012FB7F8948091800190918101A09165
:101240008201B09183012FBF4091840150918501AB
:101250006091860170918701841B950BA60BB70BDB
:1012600080319742A105B105A8F02FB7F89480917D
:10127000800190918101A0918201B09183012FBFE3
:101280008093840190938501A0938601B093870198
:101290000E9473020E94EC030E941205837049F2BF
:1012A0000E94120580FF6DCF81E60E94F10140E0AF
:1012B00061E005C081E70E94F10140E062E08CE25C
:1012C0000E949E0680916A0290E0ABE6B2E0F801CF
:1012D0009F01201B310B281739070CF054CF2D919B
:1012E0002193F6CF8F2D90E08058934F0E944B06AC
:1012F00065CF26013701E89477F82FEF3FEF4FE7EE
:101300005FE7C301B2010E94860E81110DC02FEF6D
:101310003FEF4FE75FE7C301B2010E94D20B1816FF
:101320001CF48FE691E07BCF2FEF3FEF4FE75FE4B8
:10133000C701B6010E94810E18161CF483E791E0E4
:101340006ECF2FEF3FEF4FE75FECC701B6010E9472
:10135000D20B87FDF3CF20E030E0A901C701B60131
:101360000E94D20B87FF09C08DE20E944006460111
:101370005701B7FAB094B7F8B0942AE037ED43EAD2
:101380005BE3C501B4010E946D0D4B015C010E943D
:10139000520E6B017C010E94D70B9B01AC01C50171
:1013A000B4010E946C0D4B015C014AE0C701B6011B
:1013B0000E94FF058EE20E94400620E030E040E2FD
:1013C00051E4C501B4010E94380C4B015C010E943C
:1013D000520E6B01E12CF12C4AE0C701B6010E94CC
:1013E000FF05C701B6010E94D70B9B01AC01C501E7
:1013F000B4010E946C0D20E030E040E251E40E9414
:10140000380C0E94520E0CC070E080E090E04AE080
:101410000E94FF058AE191E00E9479066B8170E0ED
:1014200080E090E04AE00E94FF05FBCECF93DF937F
:10143000E8ECF1E01382128288EE93E0A0E0B0E0E5
:1014400084839583A683B7838CE091E09183808326
:1014500085EC90E09587848784EC90E09787868779
:1014600080EC90E0918B808B81EC90E0938B828B71
:1014700082EC90E0958B848B86EC90E0978B868B4A
:10148000118E128E138E148EC5E6D2E086E0888B04
:101490000E942F0561E08889DF91CF910C9471043F
:1014A000662777270C94540AA0E0B0E0EAE5FAE05A
:1014B0000C94080DEC017B016115710519F0DB013D
:1014C0008D939C938E010F5F1F4F7880872D90E046
:1014D0000E94B10B892B11F0E801F4CFBDE27B1221
:1014E00005C00F5F1F4F7980C1E008C0EBE27E129C
:1014F00004C08E010E5F1F4F7980C0E06801F1E0EB
:10150000CF1AD10843E050E060E770E0C6010E94C6
:10151000BA0B892BF1F4680122E0C20ED11C45E020
:1015200050E06BE670E0C6010E94BA0B892B21F4F3
:10153000680187E0C80ED11CE114F10419F0D7014D
:10154000CD92DC92C111FFC060E070E080E89FE7BF
:1015500003C143E050E068E670E0C6010E94BA0BA8
:10156000892B51F4E114F10409F4F2C00E5F1F4F0E
:10157000F70111830083ECC0680160E070E0CB01EB
:1015800000E010E0F601D0EDD70DDA3058F52C2F41
:101590002260622E2C2F2870C2FF05C0211128C0A6
:1015A0000F5F1F4F25C0222311F001501109A5E044
:1015B000B0E09B01AC010E94F90C4B015C01880C6E
:1015C000991CAA1CBB1CC501B4016D0F711D811DA6
:1015D000911D6839A9E97A078A07A9E19A0740F0BD
:1015E000C66005C0DE3F51F4C3FD44C0C8606C2E28
:1015F000BFEFCB1ADB0A7080C62DC4CF2D2F2F7DF5
:101600002531C1F540814D3211F4C06106C04B3225
:1016100021F0319621E030E006C03296D6011196D5
:101620004C9122E030E0A0EDA40FAA3018F0E21BAC
:10163000F30B20C040E050E04038BCE05B075CF4B6
:101640009A01220F331F220F331F420F531F440FE3
:10165000551F4A0F511D3196DF0111972C91A0EDB6
:10166000A20FAA3048F3C4FF03C051954195510918
:10167000040F151FC1FF07C0E114F10421F03197D9
:10168000D701ED93FC930E94D70BC370C33019F0C0
:101690006B017C0106C06B017C01F7FAF094F7F84E
:1016A000F09420E030E0A901C701B6010E94D20BFE
:1016B000882309F445C017FF06C01195019511094B
:1016C000C7E8D0E002C0CFE9D0E05E01B8E1AB1AD4
:1016D000B1084601BE2DAF2D90E2E92EF12C0E157A
:1016E0001F0584F0FE012591359145915491B40177
:1016F0008B2F9A2F0E94380C4B01B82FA92F0E194F
:101700001F09EDCF2497F594E794CA15DB0539F747
:101710006401EB2EFA2E8E2D880F8F2D881F8F3FA0
:1017200049F020E030E0A901C701B6010E94D20BC8
:10173000811106C082E290E0909377028093760256
:10174000C701B60109C060E070E080E89FEF04C007
:1017500060E070E080EC9FE7CDB7DEB7EEE00C9480
:10176000240D91110C94A50C803219F089508550EC
:10177000C8F70895FB01DC014150504088F08D917D
:1017800081341CF08B350CF4805E659161341CF063
:101790006B350CF4605E861B611171F3990B089533
:1017A000881BFCCF0E94140C08F481E00895E89493
:1017B00009C097FB3EF490958095709561957F4F99
:1017C0008F4F9F4F9923A9F0F92F96E9BB27939547
:1017D000F695879577956795B795F111F8CFFAF457
:1017E000BB0F11F460FF1BC06F5F7F4F8F4F9F4F88
:1017F00016C0882311F096E911C0772321F09EE8E6
:10180000872F762F05C0662371F096E8862F70E04B
:1018100060E02AF09A95660F771F881FDAF7880F25
:101820009695879597F90895990F0008550FAA0B7B
:10183000E0E8FEEF16161706E807F907C0F01216E3
:101840001306E407F50798F0621B730B840B950BE6
:1018500039F40A2661F0232B242B252B21F408953B
:101860000A2609F4A140A6958FEF811D811D0895D8
:101870000E944B0C0C94BF0C0E94B10C38F00E94DB
:10188000B80C20F0952311F00C94A80C0C94AE0C1D
:1018900011240C94F30C0E94D00C70F3959FC1F3AB
:1018A000950F50E0551F629FF001729FBB27F00D0E
:1018B000B11D639FAA27F00DB11DAA1F649F662763
:1018C000B00DA11D661F829F2227B00DA11D621FB2
:1018D000739FB00DA11D621F839FA00D611D221F6C
:1018E000749F3327A00D611D231F849F600D211D50
:1018F000822F762F6A2F11249F5750409AF0F1F0D3
:1019000088234AF0EE0FFF1FBB1F661F771F881F3B
:1019100091505040A9F79E3F510580F00C94A80CBF
:101920000C94F30C5F3FE4F3983ED4F386957795DF
:101930006795B795F795E7959F5FC1F7FE2B880FE1
:10194000911D9695879597F9089599278827089569
:1019500097F99F6780E870E060E008959FEF80EC62
:10196000089500240A941616170618060906089505
:1019700000240A9412161306140605060895092E6B
:101980000394000C11F4882352F0BB0F40F4BF2BDA
:1019900011F460FF04C06F5F7F4F8F4F9F4F08951A
:1019A00057FD9058440F551F59F05F3F71F0479510
:1019B000880F97FB991F61F09F3F79F087950895F5
:1019C000121613061406551FF2CF4695F1DF08C014
:1019D000161617061806991FF1CF86957105610531
:1019E00008940895E894BB2766277727CB0197F9D9
:1019F00008950E945D0DA59F900DB49F900DA49F2A
:101A0000800D911D112408952F923F924F925F9265
:101A10006F927F928F929F92AF92BF92CF92DF92FE
:101A2000EF92FF920F931F93CF93DF93CDB7DEB763
:101A3000CA1BDB0B0FB6F894DEBF0FBECDBF0994F7
:101A40002A88398848885F846E847D848C849B844E
:101A5000AA84B984C884DF80EE80FD800C811B815C
:101A6000AA81B981CE0FD11D0FB6F894DEBF0FBE8B
:101A7000CDBFED010895A1E21A2EAA1BBB1BFD01EB
:101A80000DC0AA1FBB1FEE1FFF1FA217B307E4075D
:101A9000F50720F0A21BB30BE40BF50B661F771FB5
:101AA000881F991F1A9469F7609570958095909595
:101AB0009B01AC01BD01CF010895A29FB001B39F6E
:101AC000C001A39F700D811D1124911DB29F700D47
:101AD000811D1124911D08955058BB27AA270E94EB
:101AE000840D0C94BF0C0E94B10C38F00E94B80C0D
:101AF00020F039F49F3F19F426F40C94AE0C0EF448
:101B0000E095E7FB0C94A80CE92F0E94D00C58F349
:101B1000BA17620773078407950720F079F4A6F5D2
:101B20000C94F20C0EF4E0950B2EBA2FA02D0B01A5
:101B3000B90190010C01CA01A0011124FF27591B12
:101B400099F0593F50F4503E68F11A16F040A22F18
:101B5000232F342F4427585FF3CF46953795279589
:101B6000A795F0405395C9F77EF41F16BA0B620B88
:101B7000730B840BBAF09150A1F0FF0FBB1F661FCF
:101B8000771F881FC2F70EC0BA0F621F731F841F12
:101B900048F4879577956795B795F7959E3F08F038
:101BA000B0CF9395880F08F09927EE0F97958795FA
:101BB00008950E94ED0D0C94BF0C0E94B80C58F0D3
:101BC0000E94B10C40F029F45F3F29F00C94A80C5E
:101BD00051110C94F30C0C94AE0C0E94D00C68F3D1
:101BE0009923B1F3552391F3951B550BBB27AA27D6
:101BF00062177307840738F09F5F5F4F220F331F10
:101C0000441FAA1FA9F335D00E2E3AF0E0E832D0D7
:101C100091505040E695001CCAF72BD0FE2F29D0DA
:101C2000660F771F881FBB1F261737074807AB07AC
:101C3000B0E809F0BB0B802DBF01FF2793585F4F21
:101C40003AF09E3F510578F00C94A80C0C94F30CDC
:101C50005F3FE4F3983ED4F3869577956795B79503
:101C6000F7959F5FC9F7880F911D9695879597F90E
:101C70000895E1E0660F771F881FBB1F6217730787
:101C80008407BA0720F0621B730B840BBA0BEE1F9C
:101C900088F7E09508950E94520E6894B1110C9453
:101CA000F30C08950E94D80C88F09F5798F0B92F34
:101CB0009927B751B0F0E1F0660F771F881F991F81
:101CC0001AF0BA95C9F714C0B13091F00E94F20C25
:101CD000B1E008950C94F20C672F782F8827B85F35
:101CE00039F0B93FCCF3869577956795B395D9F7D9
:101CF0003EF490958095709561957F4F8F4F9F4FE3
:101D000008950E94140C08F48FEF08950E94140C9B
:101D1000880B990B0895EE0FFF1F0590F491E02DAD
:101D20000994CF93DF938230910510F482E090E024
:101D3000E0917A02F0917B0220E030E0C0E0D0E058
:101D4000309711F14081518148175907C0F0481769
:101D5000590761F482819381209719F09B838A83CC
:101D60002BC090937B0280937A0226C02115310507
:101D700019F04217530718F49A01BE01DF01EF0171
:101D80000280F381E02DDCCF2115310509F1281BFC
:101D9000390B2430310590F412968D919C91139754
:101DA0006115710521F0FB019383828304C0909338
:101DB0007B0280937A02FD01329644C0FD01E20F5E
:101DC000F31F81939193225031092D933C933AC094
:101DD0002091780230917902232B41F42091020165
:101DE0003091030130937902209378022091000111
:101DF000309101012115310541F42DB73EB74091D5
:101E0000040150910501241B350BE0917802F091FB
:101E10007902E217F307A0F42E1B3F0B28173907AE
:101E200078F0AC014E5F5F4F2417350748F04E0F36
:101E30005F1F50937902409378028193919302C07F
:101E4000E0E0F0E0CF01DF91CF9108950F931F9371
:101E5000CF93DF93009709F48CC0FC013297138273
:101E6000128200917A0210917B020115110581F412
:101E700020813181820F931F209178023091790265
:101E80002817390779F5F0937902E093780271C049
:101E9000D80140E050E0AE17BF0750F412962D91E4
:101EA0003C911397AD012115310509F1D901F3CF0B
:101EB0009D01DA013383228360817181860F971F30
:101EC0008217930769F4EC0128813981260F371FA7
:101ED0002E5F3F4F318320838A819B81938382834E
:101EE000452B29F4F0937B02E0937A0242C01396CB
:101EF000FC93EE931297ED01499159919E01240FA5
:101F0000351FE217F30771F480819181840F951FCB
:101F1000029611969C938E938281938113969C9343
:101F20008E931297E0E0F0E0D80112968D919C918B
:101F30001397009719F0F8018C01F6CF8D919C91C1
:101F400098012E5F3F4F820F931F209178023091AE
:101F500079022817390769F4309729F410927B0227
:101F600010927A0202C013821282109379020093B7
:101F70007802DF91CF911F910F910895A0E0B0E01A
:101F8000E4ECFFE00C94080DEC01009721F4CB0188
:101F90000E94910EB8C0FC01E60FF71F9C01225071
:101FA0003109E217F30708F4ACC0D9010D911C9177
:101FB000119706171707B0F00530110508F49FC0F8
:101FC000C80104978617970708F499C002501109B1
:101FD000061B170B019311936D937C93CF010E9405
:101FE000260F8DC05B01A01AB10A4C01800E911E14
:101FF000A0917A02B0917B0240E050E0E12CF12CFC
:10200000109709F44AC0A815B905D1F56D907C90D8
:102010001197630182E0C80ED11CCA14DB0480F161
:10202000A3014A195B096A0182E0C80ED11C12960D
:10203000BC9012971396AC91B5E0CB16D10440F04A
:10204000B282A38351834083D9016D937C930AC0EC
:102050000E5F1F4FC301800F911FF9019183808391
:10206000EB2DFA2FE114F10431F0D7011396FC9314
:10207000EE93129744C0F0937B02E0937A023FC044
:102080008D919C9111974817590708F4AC017D0177
:1020900012960D90BC91A02DB3CF809178029091B3
:1020A000790288159905E1F446175707C8F480911D
:1020B000000190910101009741F48DB79EB74091C6
:1020C000040150910501841B950BE817F907C8F42A
:1020D000F0937902E0937802F901718360830FC075
:1020E000CB010E94910E7C01009759F0A801BE011E
:1020F0000E948D10CE010E94260FC70104C0CE01A0
:1021000002C080E090E0CDB7DEB7EEE00C94240D85
:1021100081E090E0F8940C943E13FB01DC0102C0D6
:1021200001900D9241505040D8F70895FB01DC0119
:1021300001900D920020E1F70895AEE0B0E0E3EAEF
:10214000F0E10C94120D0D891E8986E08C831A83B0
:1021500009838FEF9FE79E838D83AE01475E5F4FBC
:102160006F89788DCE0101960E94C0102F8138852D
:10217000F801E20FF31F10822E96E4E00C942E0D6E
:10218000ACE0B0E0E6ECF0E10C94040D7C016B01F6
:102190008A01FC0117821682838181FFBDC1CE01B5
:1021A00001964C01F7019381F60193FD859193FF10
:1021B00081916F01882309F4ABC1853239F493FD15
:1021C000859193FF81916F01853229F4B70190E0E9
:1021D0000E94A812E7CF512C312C20E02032A0F42D
:1021E0008B3269F030F4803259F0833269F4206127
:1021F0002CC08D3239F0803339F4216026C0226042
:10220000246023C0286021C027FD27C030ED380F8F
:102210003A3078F426FF06C0FAE05F9E300D1124B4
:10222000532E13C08AE0389E300D1124332E2062C5
:102230000CC08E3221F426FD6BC1206406C08C36A2
:1022400011F4206802C0883641F4F60193FD8591AF
:1022500093FF81916F018111C1CF982F9F7D95547C
:10226000933028F40C5F1F4FFFE3F9830DC08336D2
:1022700031F0833771F0833509F05BC022C0F8017B
:10228000808189830E5F1F4F44244394512C540155
:1022900015C03801F2E06F0E711CF801A080B1800A
:1022A00026FF03C0652D70E002C06FEF7FEFC50110
:1022B0002C870E949D122C0183012C852F77222EC2
:1022C00017C03801F2E06F0E711CF801A080B180D8
:1022D00026FF03C0652D70E002C06FEF7FEFC501E0
:1022E0002C870E9492122C012C852068222E8301BB
:1022F00023FC1BC0832D90E048165906B0F4B701AB
:1023000080E290E00E94A8123A94F4CFF50127FCF5
:10231000859127FE81915F01B70190E00E94A8128C
:1023200031103A94F1E04F1A51084114510471F7F9
:10233000E5C0843611F0893639F5F80127FF07C06A
:1023400060817181828193810C5F1F4F08C0608121
:102350007181072E000C880B990B0E5F1F4F2F7693
:10236000722E97FF09C090958095709561957F4F6B
:102370008F4F9F4F2068722E2AE030E0A4010E9408
:10238000E012A82EA81844C0853729F42F7EB22E5B
:102390002AE030E025C0F22FF97FBF2E8F36C1F042
:1023A00018F4883579F0B4C0803719F0883721F0F7
:1023B000AFC02F2F2061B22EB4FE0DC08B2D8460D4
:1023C000B82E09C024FF0AC09F2F9660B92E06C000
:1023D00028E030E005C020E130E002C020E132E03A
:1023E000F801B7FE07C060817181828193810C5F23
:1023F0001F4F06C06081718180E090E00E5F1F4F2B
:10240000A4010E94E012A82EA818FB2DFF777F2EB2
:1024100076FE0BC0372D3E7FA51450F474FE0AC023
:1024200072FC08C0372D3E7E05C0BA2C372D03C084
:10243000BA2C01C0B52C34FF0DC0FE01EA0DF11D10
:102440008081803311F4397E09C032FF06C0B39415
:10245000B39404C0832F867809F0B39433FD13C07E
:1024600030FF06C05A2CB31418F4530C5B18B32C6D
:10247000B31468F4B70180E290E03C870E94A81290
:10248000B3943C85F5CFB31410F43B1801C0312C44
:1024900034FF12C0B70180E390E03C870E94A8128D
:1024A0003C8532FF17C031FD03C088E790E002C0D1
:1024B00088E590E0B7010CC0832F867859F031FF92
:1024C00002C08BE201C080E237FD8DE2B70190E0EF
:1024D0000E94A812A51438F4B70180E390E00E948E
:1024E000A8125A94F7CFAA94F401EA0DF11D808145
:1024F000B70190E00E94A812A110F5CF332009F493
:1025000051CEB70180E290E00E94A8123A94F6CF33
:10251000F7018681978102C08FEF9FEF2C96E2E151
:102520000C94200DFC010590615070400110D8F70B
:10253000809590958E0F9F1F0895FC01615070400B
:1025400001900110D8F7809590958E0F9F1F0895E8
:102550000F931F93CF93DF93FB01238121FD03C0D2
:102560008FEF9FEF28C022FF16C04681578124813C
:1025700035814217530744F4A081B1819D012F5F3B
:102580003F4F318320838C93268137812F5F3F4FCC
:102590003783268310C0EB01092F182F0084F185A3
:1025A000E02D0995892BE1F68E819F8101969F830D
:1025B0008E83812F902FDF91CF911F910F910895DE
:1025C000FA01AA27283051F1203181F1E8946F9364
:1025D0006E7F6E5F7F4F8F4F9F4FAF4FB1E03ED00A
:1025E000B4E03CD0670F781F891F9A1FA11D680FA8
:1025F000791F8A1F911DA11D6A0F711D811D911DDB
:10260000A11D20D009F468943F912AE0269F11244F
:102610003019305D3193DEF6CF010895462F4770B3
:10262000405D4193B3E00FD0C9F7F6CF462F4F700E
:10263000405D4A3318F0495D31FD4052419302D06C
:10264000A9F7EACFB4E0A695979587957795679512
:10265000BA95C9F700976105710508959B01AC0112
:102660000A2E06945795479537952795BA95C9F739
:10267000620F731F841F951FA01D0895F894FFCF4C
:1026800000007C0280000000000000002901A5007D
:10269000F200D000E40070015B002F005D002573A4
:1026A00025630043414E2042555320536869656CB1
:1026B0006420696E6974206661696C0020496E69E6
:1026C000742043414E2042555320536869656C6421
:1026D00020616761696E005265696E696369616E48
:1026E000646F2E2E2E0039393939006E616E006903
:0A26F0006E66006F7666000D0A00AA
:00000001FF
